S0200000417474696E7938355F494D555F4672616D654275666665722E7372656330
S1130000C5C0DFC0DEC0DDC0DCC0DBC0DAC0D9C023
S1130010D8C0D7C0D6C0D5C0D4C0D3C0D2C009C4FC
S11300200DC40CC40BC40AC409C408C407C406C460
S113003005C404C403C402C401C400C4FFC3FEC392
S1130040FDC3FCC3FBC3FAC3F9C3F8C3F7C3F6C3C8
S1130050F5C3F4C3F3C3F2C3CAC351C36FC3EEC33E
S1130060D5C3ECC3EBC3EAC3E9C3E8C3E7C3E6C340
S1130070E5C3E4C3E3C3E2C3E1C3D1C3DFC384C3C1
S1130080DDC3DCC399C3DAC3D9C3D8C3D7C3D6C3CA
S1130090D5C3D4C3D3C3D2C39BC331C33AC3CEC322
S11300A0B5C3CCC3CBC3CAC3C9C3C8C3C7C3C6C300
S11300B0C5C3C4C3C3C3C2C3C1C3B1C3BFC358C38D
S11300C0BDC3BCC36DC3B5C3B9C3B8C3B7C3B6C39B
S11300D0B5C3B4C3B3C3B2C3B1C3B0C3AFC3AEC378
S11300E0ADC3ACC3ABC3AAC3A9C3A8C3A7C3A6C3A8
S11300F0A5C3A4C3A3C3A2C3A1C3A0C39FC39EC3D8
S1130100A7C3FDC21AC39AC381C398C397C396C336
S113011095C394C393C392C391C390C38FC38EC337
S11301208DC37DC38BC32FC389C388C344C386C314
S113013085C384C383C382C381C380C37FC37EC397
S113014046C3DDC2E5C27AC361C378C377C376C34D
S113015075C374C373C372C371C370C36FC36EC3F7
S11301606DC35DC36BC303C369C368C318C305A868
S11301704CCDB2D44EB93836A9020C50B991868808
S1130180083CA6AAAA2ABE000000803F11241FBE74
S1130190CFE5D2E0DEBFCDBF11E0A0E6B0E0EEE4F3
S11301A0FCE102C005900D92A83CB107D9F722E00A
S11301B0A8ECB1E001C01D92AD30B207E1F757D40D
S11301C044CD1ECFC09AC29ABA9AB89A8FEF8FB90B
S11301D08AE28DB980EF8EB908958EB98BE297E0EB
S11301E09A95F1F78DB9B29BFECF93E09A95F1F70A
S11301F000008DB9769BF3CF87E08A95F1F78FB134
S11302009FEF9FB9B89A0895C098C29AB29BFECF47
S113021083E08A95F1F70000C09A87E08A95F1F7A8
S1130220759905C084E080930A0281E0089580E016
S11302300895B89AC2988FB980EFCFDFB8988EEF3F
S1130240CCDF882319F092E090930A020895C29AB1
S1130250C29BFECF97E09A95F1F7C09893E09A95E8
S1130260F1F70000C29893E09A95F1F70000C09A64
S1130270779906C083E080930A0281E090E00895B4
S1130280D8DF811106C081E080930A0281E090E00A
S1130290089580E090E00895CF93DF93D82FC62F80
S11302A086EDD5DF8D2FC5DF8C2FC3DFADDFDF916A
S11302B0CF9108956EE480E1EFDF8AE18A95F1F74A
S11302C000C06EE481E1E8DF0895CF93C82F88E78A
S11302D0BEDF80E0AEDF8C2FACDF96DFCF910895D8
S11302E0CF93DF93D82FC62F81E2EFDF8D2FEDDF81
S11302F08FE7EBDF82E2E9DF8C2F86958695869582
S1130300E4DF87E0E2DF88E7A2DF80E492DFC77002
S113031081E001C0880FCA95EAF78BDF75DFDF91B2
S1130320CF910895CF93DF9381E2CFDF80E0CDDFDB
S11303308FE7CBDF82E2C9DF80E0C7DF87E0C5DF7C
S113034088E785DF80E475DFC0E0D4E080E071DF1A
S11303502197E1F781E2B9DF80E0B7DF8FE7B5DF0E
S113036082E2B3DF80E0B1DF87E0AFDF88E76FDFF1
S113037080E45FDFDF91CF91089524DF8EEAA5DF6B
S113038085EDA3DF80E8A1DF88EA9FDF8FE39DDFAF
S113039083ED9BDF80E099DF80E497DF8DE895DFD4
S11303A084E193DF80E291DF80E08FDF81EA8DDFFB
S11303B088EC8BDF8AED89DF82E187DF81E885DFE6
S11303C08FEC83DF89ED81DF81EF7FDF8BED7DDFD4
S11303D080E47BDF84EA79DF86EA77DF8FEA75DF02
S11303E0A1DF0895CF93DF938830C0F46623B4F07F
S11303F0D62FC82F80930C0260930B0281E265DF35
S11304008D2F63DF8FE761DF82E25FDF8C2F5DDF9B
S113041087E05BDF88E71BDF80E40BDFDF91CF91B0
S1130420089580910C028F5F877080930C0260E0C6
S1130430D9DF08951F93CF93DF93C82F80910B02C8
S113044090E00596803891051CF4CA3021F421C04F
S1130450E8DFCA30F9F0C052D0E0CE01880F991F0E
S1130460880F991FC80FD91FC056DF4F10E089911C
S1130470E0DE80910B028F5F80930B021F5F1530CB
S1130480B1F780E0D6DE80910B028F5F80930B0280
S113049001C0C7DFDF91CF911F910895CF93DF9300
S11304A0EC018881882329F02196C4DF8991811188
S11304B0FCCFDF91CF9108954F925F926F927F921C
S11304C08F929F92AF92BF92CF92DF92EF92FF9260
S11304D00F931F93CF93DF93CDB7DEB72A970FB651
S11304E0F894DEBF0FBECDBF882E6A017B01122FA8
S11304F082E0881223C0222309F46DC0AA24A394A5
S1130500B12C01E0912C8FEF810FA50102C0440FA3
S1130510551F8A95E2F7052E000C660B770B4C21CC
S11305205D216E217F21802F452B462B472B09F41B
S1130530892D805D7FDF115031F74DC0452B462B4F
S1130540472B19F021110FC046C0222309F443C0E0
S113055000E003C00A3009F43EC080E36BDF0F5FA4
S11305601013F8CF38C0FE0131965F0100E0482C2B
S1130570512C612C712CC114D104E104F10489F0D3
S11305809C2CC701B601A30192013DDBC22ED32EE0
S1130590E42EF52E882D622F2DDB981AF50190821A
S11305A008C01B3020F00023B1F0102F08C0F50163
S11305B010820F5FFFEFAF1ABF0A1013DCCFFE01EA
S11305C0E10FF11D80818A3010F0895C01C0805DEB
S11305D031DF1150A1F72A960FB6F894DEBF0FBE93
S11305E0CDBFDF91CF911F910F91FF90EF90DF90DE
S11305F0CF90BF90AF909F908F907F906F905F90BF
S11306004F9008958F929F92AF92BF92CF92DF92B4
S1130610EF92FF926B017C0145D94B015C012FEFF6
S1130620AB01BC018AE048DF8EE204DFC501B401FE
S113063065D99B01AC01C701B601CCD820E034E2F6
S113064044E759E422DA2ED9AB01BC012FEF8AE04A
S113065033DFFF90EF90DF90CF90BF90AF909F90EB
S11306608F9008954F925F926F927F928F929F9294
S1130670AF92BF92CF92DF92EF92FF920F931F93AC
S1130680CF93DF93CDB7DEB7FE017396819091903F
S11306908F01D4018C91882309F4EDC06894BB24A4
S11306A0B4F8CC24CA94D12C853209F0C5C07401A5
S11306B0BFEFEB1AFB0AD4011196EC91119780ED70
S11306C08E0F8A3008F0CDC01296AD2C2A2D220F41
S11306D0220F2A0D220F2053A22EAE0E7D01ED9182
S11306E080ED8E0F8A3090F38E2F90E0FC01B59749
S11306F0E435F10508F0A2C0E15FFF4F0994480119
S1130700B2E08B0E911CF801808194DE840196C0C6
S1130710AC2CF801808091800E5F1F4F99202CF43F
S11307209194819491088DE285DEA401990C660B65
S1130730770B2A2D8AE0C0DE81C0AC2CF801408002
S11307405180628073800C5F1F4F772054F4709443
S1130750609450944094411C511C611C711C8DE2A6
S113076069DE2A2DB301A2018AE0A6DE67C0AC2CA3
S1130770F801408151810E5F1F4F60E070E02A2D27
S11307808AE09ADE5BC0AC2CF80140815181628121
S113079073810C5F1F4F2A2D8AE08EDE4FC0AC2C74
S11307A0F801408151810E5F1F4F60E070E02A2DF7
S11307B08B2D82DE43C0AC2CF801408151816281D3
S11307C073810C5F1F4F2A2D8B2D76DE37C0AC2C26
S11307D0F801408151810E5F1F4FFFEFAF1201C03E
S11307E0AB2C60E070E02A2D82E066DE27C0F801C1
S11307F040815181628173810C5F1F4F8FEFA8127A
S113080001C0AB2C2A2D82E057DE18C0F8016081AC
S11308107181828193810C5F1F4FF4DE0FC0480108
S1130820A2E08A0E911CF8018081918137DE840157
S113083005C085E2FFDD02C0FDDD74014701FFEF65
S11308408F1A9F0AD70111968C9181112DCF13C055
S1130850F80140815181628173810C5F1F4FAB2C81
S1130860D1CF8E2F90E0FC01B597E435F10530F738
S1130870ED59FF4F0994DF91CF911F910F91FF9094
S1130880EF90DF90CF90BF90AF909F908F907F902C
S11308906F905F904F900895CF93DF93D82FB898BF
S11308A0C2981FB880EF99DCC82FB89AD11102C042
S11308B01FB802C08FEF8FB98EEF8FDC8C2FDF91C2
S11308C0CF910895CF93C82F86EDC1DC8C2FB1DC76
S11308D09BDC8AE18A95F1F700C087EDB8DC81E002
S11308E0DBDFC82F91DC8C2FCF910895CF9389E261
S11308F0E9DFC82F88E2E6DF2C2F30E0322F2227F1
S1130900A901482BCA01CF910895CF938BE2DADF76
S1130910C82F8AE2D7DF2C2F30E0322F2227A901FB
S1130920482BCA01CF910895CF938DE2CBDFC82F16
S11309308CE2C8DF2C2F30E0322F2227A901482B6C
S1130940CA01CF9108956FE585E04CDD409108021E
S113095050910902052E000C660B770B25E08AE006
S1130960ABDD63E085E03EDD80E990E09F938F930B
S113097079DE65E585E036DD0F900F908091080201
S1130980909109021816190644F484E990E09F93A3
S11309908F9368DE0F900F9007C086E990E09F93D5
S11309A08F9360DE0F900F906FE586E01BDD409122
S11309B0060250910702052E000C660B770B25E00A
S11309C08AE07ADD63E086E00DDD88E990E09F93BC
S11309D08F9348DE65E586E005DD0F900F908091EA
S11309E00602909107021816190644F484E990E06F
S11309F09F938F9337DE0F900F9007C086E990E0A6
S1130A009F938F932FDE0F900F906FE587E0EADCC2
S1130A104091040250910502052E000C660B770BE1
S1130A2025E08AE049DD63E087E0DCDC8CE990E0E6
S1130A309F938F9317DE65E587E0D4DC0F900F90CA
S1130A4080910402909105021816190644F484E971
S1130A5090E09F938F9306DE0F900F90089586E9A0
S1130A6090E09F938F93FEDD0F900F900895CF93A6
S1130A70DF93CDB7DEB72C970FB6F894DEBF0FBE69
S1130A80CDBFA0DB7ADC4EDC15DC82E088BB0CEE4B
S1130A9011E00F2EF0EE2F2EF1E03F2EF02D26DF89
S1130AA0909309028093080230DF909307028093A9
S1130AB006023ADF9093050280930402A0E6B0E0B8
S1130AC08D909D90AD90BC90F80180829182A2821D
S1130AD0B38240906400509065006090660070900E
S1130AE06700A8ECB1E0CD90DD90ED90FC90C701DB
S1130AF0B601D5D669837A838B839C838091680001
S1130B0090916900A0916A00B0916B0089879A87DF
S1130B10AB87BC87C701B60123D86B017C0129814F
S1130B203A814B815C81C301B201AFD76D837E836F
S1130B308F839887A701960169857A858B859C8523
S1130B40A4D79B01AC016D817E818F81988543D6AA
S1130B506D837E838F839887D80114966D937D93DC
S1130B608D939C93179729853A854B855C8569817C
S1130B707A818B819C8189D769837A838B839C83D7
S1130B80A7019601C301B20180D79B01AC01698121
S1130B907A818B819C811ED66B017C01F801608770
S1130BA07187828793874090CC015090CD016090EB
S1130BB0CE017090CF01C301B20171D669837A83EB
S1130BC08B839C83C301B201CBD769877A878B87D8
S1130BD09C8729813A814B815C81C501B40155D739
S1130BE02B013C0129853A854B855C85C701B601FB
S1130BF04CD79B01AC01C301B201EDD52B013C01E3
S1130C00D1016D937D938D939C9313978D819E81D8
S1130C10AF81B885F10184839583A683B783298145
S1130C203A814B815C81C701B6012FD76B017C01EE
S1130C3029853A854B855C85C501B40126D79B017E
S1130C40AC01C701B601C6D54B015C01D1011896B0
S1130C506D937D938D939C931B97C090D001D090FE
S1130C60D101E090D201F090D301C701B60117D6AB
S1130C7069837A838B839C83C701B60171D76987A3
S1130C807A878B879C8729813A814B815C81C30158
S1130C90B201FBD66B017C0129853A854B855C85C5
S1130CA06D817E818F819885F0D69B01AC01C7014F
S1130CB0B60191D56B017C01E4EDF1E060837183B1
S1130CC08283938329813A814B815C816D817E810A
S1130CD08F819885DAD66D837E838F839887298563
S1130CE03A854B855C85C301B201CFD69B01AC012B
S1130CF06D817E818F8198856DD56093D8017093C5
S1130D00D9018093DA019093DB018092DC01909207
S1130D10DD01A092DE01B092DF0120E030E040E08E
S1130D2052E459D5BFD5B62E20E030E040E852E475
S1130D30C701B60150D5B6D5862F6B2DD1DAA8EFF1
S1130D40B1E08D909D90AD90BC90F801808291822D
S1130D50A282B3824090FC015090FD016090FE019C
S1130D607090FF01A8ECB1E0CD90DD90ED90FC9087
S1130D70C701B60194D569837A838B839C83809160
S1130D80000290910102A0910202B09103028987AE
S1130D909A87AB87BC87C701B601E2D66B017C0199
S1130DA029813A814B815C81C301B2016ED66D8386
S1130DB07E838F839887A701960169857A858B85C1
S1130DC09C8563D69B01AC016D817E818F81988562
S1130DD002D56D837E838F839887D80114966D9393
S1130DE07D938D939C93179729853A854B855C85D4
S1130DF069817A818B819C8148D669837A838B83CC
S1130E009C83A7019601C301B2013FD69B01AC01AB
S1130E1069817A818B819C81DDD46B017C01F8012D
S1130E2060877187828793874090CC015090CD0171
S1130E306090CE017090CF01C301B20130D56983B7
S1130E407A838B839C83C301B2018AD669877A87AC
S1130E508B879C8729813A814B815C81C501B401D0
S1130E6014D62B013C0129853A854B855C85C70145
S1130E70B6010BD69B01AC01C301B201ACD42B016A
S1130E803C01D1016D937D938D939C9313978D8138
S1130E909E81AF81B885F10184839583A683B7834E
S1130EA029813A814B815C81C701B601EED56B0182
S1130EB07C0129853A854B855C85C501B401E5D55E
S1130EC09B01AC01C701B60185D44B015C01D10182
S1130ED018966D937D938D939C931B97C090D0012E
S1130EE0D090D101E090D201F090D301C701B601B6
S1130EF0D6D469837A838B839C83C701B60130D6A9
S1130F0069877A878B879C8729813A814B815C81A9
S1130F10C301B201BAD56B017C0129853A854B85A1
S1130F205C856D817E818F819885AFD59B01AC01F5
S1130F30C701B60150D46B017C01E4EDF1E060839C
S1130F4071838283938329813A814B815C816D8192
S1130F507E818F81988599D56D837E838F839887D1
S1130F6029853A854B855C85C301B2018ED59B01E9
S1130F70AC016D817E818F8198852CD46093D801DA
S1130F807093D9018093DA019093DB018092DC01A4
S1130F909092DD01A092DE01B092DF0120E030E00A
S1130FA040E052E418D47ED4B62E20E030E040E88D
S1130FB052E4C701B6010FD475D4862F6B2D90D996
S1130FC0ACE6B0E08D909D90AD90BC90F80180822D
S1130FD09182A282B3824090700050907100609020
S1130FE0720070907300A8ECB1E0CD90DD90ED90AC
S1130FF0FC90C701B60153D469837A838B839C83A5
S11310008091740090917500A0917600B091770062
S113101089879A87AB87BC87C701B601A1D56B01C5
S11310207C0129813A814B815C81C301B2012DD5B8
S11310306D837E838F839887A701960169857A855E
S11310408B859C8522D59B01AC016D817E818F812E
S11310509885C1D36D837E838F839887D801149636
S11310606D937D938D939C93179729853A854B8532
S11310705C8569817A818B819C8107D569837A83B8
S11310808B839C83A7019601C301B201FED49B010B
S1131090AC0169817A818B819C819CD36B017C0139
S11310A0F80160877187828793874090CC015090C4
S11310B0CD016090CE017090CF01C301B201EFD396
S11310C069837A838B839C83C301B20149D5698781
S11310D07A878B879C8729813A814B815C81C50102
S11310E0B401D3D42B013C0129853A854B855C8519
S11310F0C701B601CAD49B01AC01C301B2016BD3D1
S11311002B013C01D1016D937D938D939C93139797
S11311108D819E81AF81B885F10184839583A683F7
S1131120B78329813A814B815C81C701B601ADD473
S11311306B017C0129853A854B855C85C501B40129
S1131140A4D49B01AC01C701B60144D34B015C019B
S1131150D10118966D937D938D939C931B97C090AA
S1131160D001D090D101E090D201F090D301C70119
S1131170B60195D369837A838B839C83C701B601B7
S1131180EFD469877A878B879C8729813A814B8141
S11311905C81C301B20179D46B017C0129853A8554
S11311A04B855C856D817E818F8198856ED49B0192
S11311B0AC01C701B6010FD36B017C01E4EDF1E092
S11311C0608371838283938329813A814B815C811B
S11311D06D817E818F81988558D46D837E838F83C2
S11311E0988729853A854B855C85C301B2014DD426
S11311F09B01AC016D817E818F819885EBD26093D8
S1131200D8017093D9018093DA019093DB01809225
S1131210DC019092DD01A092DE01B092DF0120E0BA
S113122030E040E052E4D7D23DD3B62E20E030E0A7
S113123040E852E4C701B601CED234D3862F6B2DD9
S11312404FD8A8E7B0E08D909D90AD90BC90F80188
S113125080829182A282B38240907C0050907D0073
S113126060907E0070907F00A8ECB1E0CD90DD909E
S1131270ED90FC90C701B60112D369837A838B8306
S11312809C838091800090918100A0918200B09114
S1131290830089879A87AB87BC87C701B60160D46E
S11312A06B017C0129813A814B815C81C301B201CC
S11312B0ECD36D837E838F839887A701960169851C
S11312C07A858B859C85E1D39B01AC016D817E8100
S11312D08F81988580D26D837E838F839887D80190
S11312E014966D937D938D939C93179729853A85D6
S11312F04B855C8569817A818B819C81C6D36983A6
S11313007A838B839C83A7019601C301B201BDD369
S11313109B01AC0169817A818B819C815BD26B01D9
S11313207C01F80160877187828793874090CC01A4
S11313305090CD016090CE017090CF01C301B201F5
S1131340AED269837A838B839C83C301B20108D4B0
S113135069877A878B879C8729813A814B815C8155
S1131360C501B40192D32B013C0129853A854B85F3
S11313705C85C701B60189D39B01AC01C301B201ED
S11313802AD22B013C01D1016D937D938D939C93C3
S113139013978D819E81AF81B885F10184839583F4
S11313A0A683B78329813A814B815C81C701B60149
S11313B06CD36B017C0129853A854B855C85C5011D
S11313C0B40163D39B01AC01C701B60103D24B0145
S11313D05C01D10118966D937D938D939C931B971B
S11313E0C090D001D090D101E090D201F090D3010F
S11313F0C701B60154D269837A838B839C83C70166
S1131400B601AED369877A878B879C8729813A8115
S11314104B815C81C301B20138D36B017C01298506
S11314203A854B855C856D817E818F8198852DD32E
S11314309B01AC01C701B601CED16B017C01E4ED87
S1131440F1E0608371838283938329813A814B81A4
S11314505C816D817E818F81988517D36D837E83B6
S11314608F83988729853A854B855C85C301B201B2
S11314700CD39B01AC016D817E818F819885AAD1AB
S11314806093D8017093D9018093DA019093DB01C2
S11314908092DC019092DD01A092DE01B092DF0126
S11314A020E030E040E052E496D1FCD1B62E20E0BA
S11314B030E040E852E4C701B6018DD1F3D1862F64
S11314C06B2D0ED7A4E8B0E08D909D90AD90BC90AC
S11314D0F80180829182A282B38240908800509069
S11314E0890060908A0070908B00A8ECB1E0CD90E8
S11314F0DD90ED90FC90C701B601D1D169837A8368
S11315008B839C8380918C0090918D00A0918E00A0
S1131510B0918F0089879A87AB87BC87C701B601D2
S11315201FD36B017C0129813A814B815C81C3010A
S1131530B201ABD26D837E838F839887A701960116
S113154069857A858B859C85A0D29B01AC016D81D0
S11315507E818F8198853FD16D837E838F83988729
S1131560D80114966D937D938D939C931797298539
S11315703A854B855C8569817A818B819C8185D292
S113158069837A838B839C83A7019601C301B2018B
S11315907CD29B01AC0169817A818B819C811AD1B7
S11315A06B017C01F8016087718782879387409083
S11315B0CC015090CD016090CE017090CF01C30159
S11315C0B2016DD169837A838B839C83C301B20199
S11315D0C7D269877A878B879C8729813A814B8117
S11315E05C81C501B40151D22B013C0129853A85A6
S11315F04B855C85C701B60148D29B01AC01C30190
S1131600B201E9D02B013C01D1016D937D938D93FF
S11316109C9313978D819E81AF81B885F10184835A
S11316209583A683B78329813A814B815C81C70165
S1131630B6012BD26B017C0129853A854B855C85EB
S1131640C501B40122D29B01AC01C701B601C2D0CD
S11316504B015C01D10118966D937D938D939C93FE
S11316601B97C090D001D090D101E090D201F090AE
S1131670D301C701B60113D169837A838B839C8319
S1131680C701B6016DD269877A878B879C872981C8
S11316903A814B815C81C301B201F7D16B017C01BA
S11316A029853A854B855C856D817E818F819885FE
S11316B0ECD19B01AC01C701B6018DD06B017C015B
S11316C0E4EDF1E0608371838283938329813A811D
S11316D04B815C816D817E818F819885D6D16D83AC
S11316E07E838F83988729853A854B855C85C301E2
S11316F0B201CBD19B01AC016D817E818F81988534
S113170069D06093D8017093D9018093DA019093E2
S1131710DB018092DC019092DD01A092DE01B092A7
S1131720DF0120E030E040E052E455D0BBD0B62EDB
S113173020E030E040E852E4C701B6014CD0B2D01A
S1131740862F6B2DCDD5FFD8FFEF21EE84E0F1502D
S113175020408040E1F700C00000E4D52AE037EDE6
S113176043E25CE3A8ECB1E06D917D918D919C9195
S113177032D0E8ECF1E060837183828393832DECB3
S11317803CEC4CEC5DE36091CC017091CD01809117
S1131790CE019091CF011FD06093CC017093CD0105
S11317A08093CE019093CF012DEC3CEC4CE45DE3AF
S11317B06091D0017091D1018091D2019091D301B7
S11317C00AD06093D0017093D1018093D201909399
S11317D0D30165C95058BB27AA270ED00BC1D4D05A
S11317E030F0D9D020F031F49F3F11F41EF4C9C079
S11317F00EF4E095E7FBBFC0E92F1ED180F3BA17C2
S1131800620773078407950718F071F49EF536C1D3
S11318100EF4E0950B2EBA2FA02D0B01B901900107
S11318200C01CA01A0011124FF27591B99F0593F4B
S113183050F4503E68F11A16F040A22F232F342F93
S11318404427585FF3CF469537952795A795F040E1
S11318505395C9F77EF41F16BA0B620B730B840BF6
S1131860BAF09150A1F0FF0FBB1F661F771F881FAE
S1131870C2F70EC0BA0F621F731F841F48F4879506
S113188077956795B795F7959E3F08F0B3CF9395F5
S1131890880F08F09927EE0F97958795089583D0C0
S11318A0E395B9C0D1D088F09F5790F0B92F99270C
S11318B0B751A0F0D1F0660F771F881F991F1AF057
S11318C0BA95C9F712C0B13081F0D8D0B1E008950B
S11318D0D5C0672F782F8827B85F39F0B93FCCF38C
S11318E0869577956795B395D9F73EF4909580954D
S11318F0709561957F4F8F4F9F4F0895E89409C06D
S113190097FB3EF490958095709561957F4F8F4F2E
S11319109F4F9923A9F0F92F96E9BB279395F69544
S1131920879577956795B795F111F8CFFAF4BB0FC2
S113193011F460FF1BC06F5F7F4F8F4F9F4F16C026
S1131940882311F096E911C0772321F09EE8872FB0
S1131950762F05C0662371F096E8862F70E060E06C
S11319602AF09A95660F771F881FDAF7880F9695E5
S1131970879597F9089597F99F6780E870E060E08C
S113198008959FEF80EC089500240A941616170614
S113199018060906089500240A941216130614065C
S11319A005060895EECF50D0E8F3E894E0E0BB27B5
S11319B09F57F0F02AED3FE049EC06C0EE0FBB0F55
S11319C0661F771F881F28F0B23A620773078407DF
S11319D028F0B25A620B730B840BE3959A9572F755
S11319E0803830F49A95BB0F661F771F881FD2F793
S11319F09048BEC0092E0394000C11F4882352F0C1
S1131A00BB0F40F4BF2B11F460FF04C06F5F7F4F26
S1131A108F4F9F4F0895EF93E0FF06C0A2EA2AED8F
S1131A203FE049EC5FEBE8DEE5DF0F90039401FC57
S1131A309058EEE6F1E0A8C057FD9058440F551FAA
S1131A4059F05F3F71F04795880F97FB991F61F03C
S1131A509F3F79F087950895121613061406551FB3
S1131A60F2CF4695F1DF08C0161617061806991F1F
S1131A70F1CF86957105610508940895E894BB2714
S1131A8066277727CB0197F908950AD0B3CF7CDF77
S1131A9028F081DF18F0952309F06DCF72CFEFCFD6
S1131AA0CBDFA8F39923D9F35523C9F3950F50E05D
S1131AB0551FAA27EE27FF27BB2700240894679504
S1131AC020F4E20FF31FB41F0A1E220F331F441F1A
S1131AD0AA1F6695A9F7779530F4F30FB41F0A1E71
S1131AE0121E08F46395330F441FAA1F221F769514
S1131AF099F7879520F4B40F0A1E121E631F440F32
S1131B00AA1F221F331F8695A9F7862F712D602DDA
S1131B1011249F5750408AF0E1F088234AF0EE0FD9
S1131B20FF1FBB1F661F771F881F91505040A9F7E6
S1131B309E3F510570F01FCFA2CF5F3FECF3983E5C
S1131B40DCF3869577956795B795F795E7959F5F4D
S1131B50C1F7FE2B880F911D9695879597F90895E7
S1131B609F9321DF0F9007FCEE5F55CF9F3F31F02D
S1131B70915020F4879577956795B795880F911DB7
S1131B809695879597F908959F938F937F936F9375
S1131B90FF93EF939B01AC0178DFEF91FF9105D0A8
S1131BA02F913F914F915F9170CFDF93CF931F930C
S1131BB00F93FF92EF92DF927B018C01689405C032
S1131BC0DA2EEF016DDFFE01E894A59125913591A0
S1131BD045915591AEF3EF010FDEFE019701A80187
S1131BE0DA9479F7DF90EF90FF900F911F91CF91E6
S1131BF0DF910895002480FD060E660F11F086958E
S1131C00D1F7802D0895A1E21A2EAA1BBB1BFD015A
S1131C100DC0AA1FBB1FEE1FFF1FA217B307E407C7
S1131C20F50720F0A21BB30BE40BF50B661F771F1F
S1131C30881F991F1A9469F76095709580959095FF
S1111C409B01AC01BD01CF010895F894FFCFC4
S1131C4E000070410000704100007041000000006F
S1131C5E0000000000007041000000000000704110
S1131C6E00000000000070410000000000000000B1
S1131C7E285829002B002D0028592900285A2900FC
S1131C8E000000000000002F0000000700070014F1
S1131C9E7F147F14242A7F2A122313086462364980
S1131CAE5522500005030000001C22410000412271
S1131CBE1C0014083E081408083E08080000A06022
S1131CCE00080808080800606000002010080402DC
S1131CDE3E5149453E00427F4000426151494621F2
S1131CEE41454B311814127F1027454545393C4A5E
S1131CFE49493001710905033649494936064949AE
S1131D0E291E003636000000563600000814224103
S1131D1E001414141414004122140802015109066B
S1131D2E324959513E7C1211127C7F494949363E43
S1131D3E414141227F4141221C7F494949417F094A
S1131D4E0909013E4149497A7F0808087F00417F0D
S1131D5E41002040413F017F081422417F40404012
S1131D6E407F020C027F7F0408107F3E4141413EBA
S1131D7E7F090909063E4151215E7F09192946460C
S1131D8E4949493101017F01013F4040403F1F2035
S1131D9E40201F3F4038403F631408146307087007
S10B1DAE080761514945430097
S9030000FC
